{
  "_format": "hh-sol-artifact-1",
  "contractName": "SplitVaultFactory",
  "sourceName": "contracts/SplitVaultFactory.sol",
  "abi": [
    {
      "inputs": [],
      "name": "InvalidAddress",
      "type": "error"
    },
    {
      "anonymous": false,
      "inputs": [
        {
          "indexed": true,
          "internalType": "address",
          "name": "owner",
          "type": "address"
        },
        {
          "indexed": true,
          "internalType": "address",
          "name": "vault",
          "type": "address"
        },
        {
          "indexed": false,
          "internalType": "uint256",
          "name": "timestamp",
          "type": "uint256"
        }
      ],
      "name": "VaultCreated",
      "type": "event"
    },
    {
      "inputs": [
        {
          "internalType": "address",
          "name": "_owner",
          "type": "address"
        }
      ],
      "name": "createVault",
      "outputs": [
        {
          "internalType": "address",
          "name": "vault",
          "type": "address"
        }
      ],
      "stateMutability": "nonpayable",
      "type": "function"
    }
  ],
  "bytecode": "0x608060405234801561001057600080fd5b50612e83806100206000396000f3fe608060405234801561001057600080fd5b506004361061002b5760003560e01c8063b4bd6f4614610030575b600080fd5b61004361003e366004610129565b61005f565b6040516001600160a01b03909116815260200160405180910390f35b60006001600160a01b0382166100885760405163e6c4247b60e01b815260040160405180910390fd5b6000826040516100979061011c565b6001600160a01b039091168152602001604051809103906000f0801580156100c3573d6000803e3d6000fd5b509050809150816001600160a01b0316836001600160a01b03167f0b045af6aff86dd2cda5342fd0329a354dc66759ff1eda00d7ecf13a76c7fb3b4260405161010e91815260200190565b60405180910390a350919050565b612cf48061015a83390190565b60006020828403121561013b57600080fd5b81356001600160a01b038116811461015257600080fd5b939250505056fe60806040523480156200001157600080fd5b5060405162002cf438038062002cf48339810160408190526200003491620000eb565b8060017f9b779b17422d0df92223018b32b4d1fa46e071723d6817e2486d003becc55f00556001600160a01b0381166200008857604051631e4fbdf760e01b81526000600482015260240160405180910390fd5b62000093816200009b565b50506200011d565b600080546001600160a01b038381166001600160a01b0319831681178455604051919092169283917f8be0079c531659141344cd1fd0a4f28419497f9722a3daafe3b4186f6b6457e09190a35050565b600060208284031215620000fe57600080fd5b81516001600160a01b03811681146200011657600080fd5b9392505050565b612bc7806200012d6000396000f3fe608060405234801561001057600080fd5b50600436106101a95760003560e01c8063715018a6116100f9578063af157c1911610097578063e4fc6b6d11610071578063e4fc6b6d14610391578063efca2eed14610399578063f2fde38b146103a2578063ff50abdc146103b557600080fd5b8063af157c1914610356578063bc1ca3e91461036b578063e1a5a0c81461037e57600080fd5b806384bf3b81116100d357806384bf3b811461030a578063884b63aa1461031d5780638da5cb5b146103305780639a33e3001461034157600080fd5b8063715018a6146102e757806376e15be3146102ef5780638456cb591461030257600080fd5b80633f4ba83a1161016657806357b4d18e1161014057806357b4d18e146102a55780635c975abb146102ad57806367c897fe146102bf5780636ff1c9bc146102d457600080fd5b80633f4ba83a14610275578063402914f51461027d5780634e71d92d1461029d57600080fd5b806311eac855146101ae578063158ef93e146101de57806316bb5e91146101fb5780633cb5d1001461021c5780633d8270f5146102405780633de8643014610260575b600080fd5b6001546101c1906001600160a01b031681565b6040516001600160a01b0390911681526020015b60405180910390f35b6003546101eb9060ff1681565b60405190151581526020016101d5565b61020e6102093660046122df565b6103be565b6040519081526020016101d5565b61022f61022a366004612301565b6104b7565b6040516101d5959493929190612360565b61025361024e3660046122df565b610592565b6040516101d591906123f2565b61027361026e366004612301565b610715565b005b61027361081d565b61020e61028b3660046122df565b60086020526000908152604090205481565b61027361082f565b61020e610920565b600054600160a01b900460ff166101eb565b6102c76109a4565b6040516101d59190612405565b6102736102e23660046122df565b610b6f565b610273610caf565b6102736102fd3660046124d5565b610cc1565b610273610fa2565b610273610318366004612541565b610fb2565b61027361032b366004612646565b6112b7565b6000546001600160a01b03166101c1565b6103496114f7565b6040516101d591906126e0565b61035e611585565b6040516101d591906126f3565b610273610379366004612301565b6116b3565b61027361038c3660046124d5565b611787565b610273611a58565b61020e60055481565b6102736103b03660046122df565b611b3b565b61020e60045481565b6001600160a01b0381166000908152600760205260408120548082036103e75750600092915050565b6001546040516370a0823160e01b81523060048201526000916001600160a01b0316906370a0823190602401602060405180830381865afa158015610430573d6000803e3d6000fd5b505050506040513d601f19601f820116820180604052508101906104549190612755565b905080600003610468575060009392505050565b6127106006610478600185612784565b815481106104885761048861279d565b906000526020600020906005020160010154826104a591906127b3565b6104af91906127ca565b949350505050565b600681815481106104c757600080fd5b600091825260209091206005909102018054600182015460028301546003840180546001600160a01b03909416955091939092909190610506906127ec565b80601f0160208091040260200160405190810160405280929190818152602001828054610532906127ec565b801561057f5780601f106105545761010080835404028352916020019161057f565b820191906000526020600020905b81548152906001019060200180831161056257829003601f168201915b5050506004909301549192505060ff1685565b6040805160a08101825260008082526020808301829052828401829052606080840152608083018290526001600160a01b0385168252600790529182205490918190036105f25760405163b6665f3f60e01b815260040160405180910390fd5b60066105ff600183612784565b8154811061060f5761060f61279d565b90600052602060002090600502016040518060a00160405290816000820160009054906101000a90046001600160a01b03166001600160a01b03166001600160a01b03168152602001600182015481526020016002820154815260200160038201805461067b906127ec565b80601f01602080910402602001604051908101604052809291908181526020018280546106a7906127ec565b80156106f45780601f106106c9576101008083540402835291602001916106f4565b820191906000526020600020905b8154815290600101906020018083116106d757829003601f168201915b50505091835250506004919091015460ff1615156020909101529392505050565b60035460ff16610738576040516321c4e35760e21b815260040160405180910390fd5b610740611b7b565b610748611ba6565b8060000361076957604051631f2a200560e01b815260040160405180910390fd5b6001546040516370a0823160e01b81523060048201526000916001600160a01b0316906370a0823190602401602060405180830381865afa1580156107b2573d6000803e3d6000fd5b505050506040513d601f19601f820116820180604052508101906107d69190612755565b9050808211156107f957604051631e9acf1760e31b815260040160405180910390fd5b61080282611bc2565b5061081a6001600080516020612b7283398151915255565b50565b610825611da8565b61082d611dd5565b565b60035460ff16610852576040516321c4e35760e21b815260040160405180910390fd5b61085a611b7b565b610862611ba6565b3360009081526008602052604081205490819003610893576040516312d37ee560e31b815260040160405180910390fd5b336000908152600860205260408120819055600580548392906108b7908490612826565b90915550506001546108d3906001600160a01b03163383611e2a565b60405181815233907fd8138f8a3f377c5259ca548e70e4c2de94f129f5a11036a15b69513cba2b426a9060200160405180910390a25061082d6001600080516020612b7283398151915255565b60035460009060ff166109335750600090565b6001546040516370a0823160e01b81523060048201526001600160a01b03909116906370a0823190602401602060405180830381865afa15801561097b573d6000803e3d6000fd5b505050506040513d601f19601f8201168201806040525081019061099f9190612755565b905090565b6109f96040518061010001604052806060815260200160006001600160a01b03168152602001600081526020016000815260200160008152602001600015158152602001600015158152602001600081525090565b60405180610100016040528060028054610a12906127ec565b80601f0160208091040260200160405190810160405280929190818152602001828054610a3e906127ec565b8015610a8b5780601f10610a6057610100808354040283529160200191610a8b565b820191906000526020600020905b815481529060010190602001808311610a6e57829003601f168201915b50505091835250506001546001600160a01b031660208201526004546040820152600554606082015260035460809091019060ff16610acb576000610b37565b6001546040516370a0823160e01b81523060048201526001600160a01b03909116906370a0823190602401602060405180830381865afa158015610b13573d6000803e3d6000fd5b505050506040513d601f19601f82011682018060405250810190610b379190612755565b815260035460ff1615156020820152604001610b5d60005460ff600160a01b9091041690565b15158152600654602090910152919050565b610b77611da8565b610b7f611e64565b610b87611ba6565b6001600160a01b038116610bae5760405163e6c4247b60e01b815260040160405180910390fd5b6001546040516370a0823160e01b81523060048201526000916001600160a01b0316906370a0823190602401602060405180830381865afa158015610bf7573d6000803e3d6000fd5b505050506040513d601f19601f82011682018060405250810190610c1b9190612755565b905080600003610c3d5760405162598fc960e21b815260040160405180910390fd5b600154610c54906001600160a01b03168383611e2a565b816001600160a01b03167f5fafa99d0643513820be26656b45130b01e1c03062e1266bf36f88cbd3bd969582604051610c8f91815260200190565b60405180910390a25061081a6001600080516020612b7283398151915255565b610cb7611da8565b61082d6000611e8e565b610cc9611da8565b60035460ff16610cec576040516321c4e35760e21b815260040160405180910390fd5b610cf4611b7b565b610cfc611ba6565b821580610d095750828114155b15610d2a576040516001621398b960e31b0319815260040160405180910390fd5b6000805b82811015610d6e57838382818110610d4857610d4861279d565b9050602002013582610d5a9190612826565b915080610d6681612839565b915050610d2e565b506001546040516370a0823160e01b815230600482015282916001600160a01b0316906370a0823190602401602060405180830381865afa158015610db7573d6000803e3d6000fd5b505050506040513d601f19601f82011682018060405250810190610ddb9190612755565b1015610dfa57604051631e9acf1760e31b815260040160405180910390fd5b60005b84811015610f83576000868683818110610e1957610e1961279d565b9050602002016020810190610e2e91906122df565b6001600160a01b031603610e555760405163e6c4247b60e01b815260040160405180910390fd5b838382818110610e6757610e6761279d565b9050602002013560000315610f7157838382818110610e8857610e8861279d565b9050602002013560086000888885818110610ea557610ea561279d565b9050602002016020810190610eba91906122df565b6001600160a01b03166001600160a01b031681526020019081526020016000206000828254610ee99190612826565b909155508690508582818110610f0157610f0161279d565b9050602002016020810190610f1691906122df565b6001600160a01b03167f603f16706d8facbdadddadc2f84737909caebc5d1f3adf53d69014f2d908611c858584818110610f5257610f5261279d565b90506020020135604051610f6891815260200190565b60405180910390a25b80610f7b81612839565b915050610dfd565b5050610f9c6001600080516020612b7283398151915255565b50505050565b610faa611da8565b61082d611ede565b610fba611da8565b60035460ff1615610fdd5760405162dc149f60e41b815260040160405180910390fd5b6001600160a01b0387166110045760405163e6c4247b60e01b815260040160405180910390fd5b600085900361102657604051637f2ba2a560e11b815260040160405180910390fd5b84831415806110355750848114155b1561105357604051631f3b85d360e01b815260040160405180910390fd5b6000805b848110156111455760008888838181106110735761107361279d565b905060200201602081019061108891906122df565b6001600160a01b0316036110af5760405163e6c4247b60e01b815260040160405180910390fd5b8585828181106110c1576110c161279d565b90506020020135600014806110ef57506127108686838181106110e6576110e661279d565b90506020020135115b1561110d57604051631f3b85d360e01b815260040160405180910390fd5b85858281811061111f5761111f61279d565b90506020020135826111319190612826565b91508061113d81612839565b915050611057565b508061271014611168576040516396bd3b6760e01b815260040160405180910390fd5b600180546001600160a01b0319166001600160a01b038a1617905560026111908a8c836128b6565b506003805460ff1916600117905560005b8681101561125c5761124a8888838181106111be576111be61279d565b90506020020160208101906111d391906122df565b8787848181106111e5576111e561279d565b905060200201358686858181106111fe576111fe61279d565b90506020028101906112109190612977565b8080601f016020809104026020016040519081016040528093929190818152602001838380828437600092019190915250611f2192505050565b8061125481612839565b9150506111a1565b507f59fa11520ff76ce90ec76e544bc463d4e49c009ce0585a35f504348b33bb0bb78a8a8a6112936000546001600160a01b031690565b6040516112a394939291906129be565b60405180910390a150505050505050505050565b6112bf611da8565b60035460ff166112e2576040516321c4e35760e21b815260040160405180910390fd5b6112ea611b7b565b600085900361130c57604051637f2ba2a560e11b815260040160405180910390fd5b848314158061131b5750848114155b1561133957604051631f3b85d360e01b815260040160405180910390fd5b6000805b8481101561142b5760008888838181106113595761135961279d565b905060200201602081019061136e91906122df565b6001600160a01b0316036113955760405163e6c4247b60e01b815260040160405180910390fd5b8585828181106113a7576113a761279d565b90506020020135600014806113d557506127108686838181106113cc576113cc61279d565b90506020020135115b156113f357604051631f3b85d360e01b815260040160405180910390fd5b8585828181106114055761140561279d565b90506020020135826114179190612826565b91508061142381612839565b91505061133d565b50806127101461144e576040516396bd3b6760e01b815260040160405180910390fd5b60005b6006548110156114ae5760076000600683815481106114725761147261279d565b600091825260208083206005909202909101546001600160a01b03168352820192909252604001812055806114a681612839565b915050611451565b506114bb60066000612210565b60005b868110156114ed576114db8888838181106111be576111be61279d565b806114e581612839565b9150506114be565b5050505050505050565b60028054611504906127ec565b80601f0160208091040260200160405190810160405280929190818152602001828054611530906127ec565b801561157d5780601f106115525761010080835404028352916020019161157d565b820191906000526020600020905b81548152906001019060200180831161156057829003601f168201915b505050505081565b60606006805480602002602001604051908101604052809291908181526020016000905b828210156116aa5760008481526020908190206040805160a0810182526005860290920180546001600160a01b03168352600181015493830193909352600283015490820152600382018054919291606084019190611607906127ec565b80601f0160208091040260200160405190810160405280929190818152602001828054611633906127ec565b80156116805780601f1061165557610100808354040283529160200191611680565b820191906000526020600020905b81548152906001019060200180831161166357829003601f168201915b50505091835250506004919091015460ff16151560209182015290825260019290920191016115a9565b50505050905090565b60035460ff166116d6576040516321c4e35760e21b815260040160405180910390fd5b6116de611b7b565b6116e6611ba6565b8060000361170757604051631f2a200560e01b815260040160405180910390fd5b60015461171f906001600160a01b03163330846120d2565b80600460008282546117319190612826565b90915550506040805182815242602082015233917f2f22b7f6e7f7df7d0eb3d1a543a2b6eb906e76a03540c2d66d2725270a5f6d31910160405180910390a261081a6001600080516020612b7283398151915255565b61178f611da8565b60035460ff166117b2576040516321c4e35760e21b815260040160405180910390fd5b6117ba611b7b565b6117c2611ba6565b8215806117cf5750828114155b156117f0576040516001621398b960e31b0319815260040160405180910390fd5b6000805b828110156118345783838281811061180e5761180e61279d565b90506020020135826118209190612826565b91508061182c81612839565b9150506117f4565b506001546040516370a0823160e01b815230600482015282916001600160a01b0316906370a0823190602401602060405180830381865afa15801561187d573d6000803e3d6000fd5b505050506040513d601f19601f820116820180604052508101906118a19190612755565b10156118c057604051631e9acf1760e31b815260040160405180910390fd5b60005b84811015610f835760008686838181106118df576118df61279d565b90506020020160208101906118f491906122df565b6001600160a01b03160361191b5760405163e6c4247b60e01b815260040160405180910390fd5b83838281811061192d5761192d61279d565b9050602002013560000315611a46576119948686838181106119515761195161279d565b905060200201602081019061196691906122df565b8585848181106119785761197861279d565b6001546001600160a01b03169392602090910201359050611e2a565b8383828181106119a6576119a661279d565b90506020020135600560008282546119be9190612826565b9091555086905085828181106119d6576119d661279d565b90506020020160208101906119eb91906122df565b6001600160a01b03167ff01fbf7365e57363aafb506ba8922579de1fc0489aece961448c539e463b1b30858584818110611a2757611a2761279d565b90506020020135604051611a3d91815260200190565b60405180910390a25b80611a5081612839565b9150506118c3565b60035460ff16611a7b576040516321c4e35760e21b815260040160405180910390fd5b611a83611b7b565b611a8b611ba6565b6001546040516370a0823160e01b81523060048201526000916001600160a01b0316906370a0823190602401602060405180830381865afa158015611ad4573d6000803e3d6000fd5b505050506040513d601f19601f82011682018060405250810190611af89190612755565b905080600003611b1a5760405162598fc960e21b815260040160405180910390fd5b611b2381611bc2565b5061082d6001600080516020612b7283398151915255565b611b43611da8565b6001600160a01b038116611b7257604051631e4fbdf760e01b8152600060048201526024015b60405180910390fd5b61081a81611e8e565b600054600160a01b900460ff161561082d5760405163d93c066560e01b815260040160405180910390fd5b611bae612108565b6002600080516020612b7283398151915255565b600654600003611be557604051637f2ba2a560e11b815260040160405180910390fd5b600654600090815b81811015611d0257600060068281548110611c0a57611c0a61279d565b60009182526020909120600590910201600481015490915060ff16611c2f5750611cf0565b6000612710826001015487611c4491906127b3565b611c4e91906127ca565b905080600003611c5f575050611cf0565b80826002016000828254611c739190612826565b90915550611c8390508186612826565b8254600154919650611ca2916001600160a01b03908116911683611e2a565b81546040516001600160a01b03909116907f53c70bd67916e0181ec9b1ae9e5f5e9c76188ad9d5a018bf5fb8b2507a44dd8490611ce59084906003870190612a05565b60405180910390a250505b80611cfa81612839565b915050611bed565b506000611d0f8385612784565b90508015611d4c57611d3f611d2c6000546001600160a01b031690565b6001546001600160a01b03169083611e2a565b611d498184612826565b92505b8260056000828254611d5e9190612826565b90915550506040805184815260208101849052428183015290517f6215b003e186dbc79e3bd07b486dc69758f50dab026e5d485d4a945d560154479181900360600190a150505050565b6000546001600160a01b0316331461082d5760405163118cdaa760e01b8152336004820152602401611b69565b611ddd611e64565b6000805460ff60a01b191690557f5db9ee0a495bf2e6ff9c91a7834c1ba4fdd244a5e8aa4e537bd38aeae4b073aa335b6040516001600160a01b03909116815260200160405180910390a1565b611e378383836001612138565b611e5f57604051635274afe760e01b81526001600160a01b0384166004820152602401611b69565b505050565b600054600160a01b900460ff1661082d57604051638dfc202b60e01b815260040160405180910390fd5b600080546001600160a01b038381166001600160a01b0319831681178455604051919092169283917f8be0079c531659141344cd1fd0a4f28419497f9722a3daafe3b4186f6b6457e09190a35050565b611ee6611b7b565b6000805460ff60a01b1916600160a01b1790557f62e78cea01bee320cd4e420270b5ea74000d11b0c9f74754ebdbfc544b05a258611e0d3390565b6001600160a01b03831660009081526007602052604090205415611f5857604051630d228c3b60e41b815260040160405180910390fd5b6040805160a0810182526001600160a01b0385811682526020820185815260009383018481526060840186815260016080860181905260068054918201815590965284517ff652222313e28459528d920b65115c16c04f3efc82aaedc97be59f3f377c0d3f600590970296870180546001600160a01b0319169190951617845591517ff652222313e28459528d920b65115c16c04f3efc82aaedc97be59f3f377c0d40860155517ff652222313e28459528d920b65115c16c04f3efc82aaedc97be59f3f377c0d4185015551919290917ff652222313e28459528d920b65115c16c04f3efc82aaedc97be59f3f377c0d42909101906120579082612a98565b50608091909101516004909101805460ff19169115159190911790556006546001600160a01b038416600081815260076020526040908190209290925590517f5107eb461842b811feb3b67a639723df0c932c78567f48e039209c63dc6b0d73906120c59085908590612b58565b60405180910390a2505050565b6120e084848484600161219e565b610f9c57604051635274afe760e01b81526001600160a01b0385166004820152602401611b69565b600080516020612b728339815191525460020361082d57604051633ee5aeb560e01b815260040160405180910390fd5b60405163a9059cbb60e01b60008181526001600160a01b038616600452602485905291602083604481808b5af192506001600051148316612192578383151615612185573d6000823e3d81fd5b6000873b113d1516831692505b60405250949350505050565b6040516323b872dd60e01b60008181526001600160a01b038781166004528616602452604485905291602083606481808c5af1925060016000511483166121fe5783831516156121f1573d6000823e3d81fd5b6000883b113d1516831692505b60405250600060605295945050505050565b508054600082556005029060005260206000209081019061081a91905b808211156122755780546001600160a01b0319168155600060018201819055600282018190556122606003830182612279565b5060048101805460ff1916905560050161222d565b5090565b508054612285906127ec565b6000825580601f10612295575050565b601f01602090049060005260206000209081019061081a91905b8082111561227557600081556001016122af565b80356001600160a01b03811681146122da57600080fd5b919050565b6000602082840312156122f157600080fd5b6122fa826122c3565b9392505050565b60006020828403121561231357600080fd5b5035919050565b6000815180845260005b8181101561234057602081850181015186830182015201612324565b506000602082860101526020601f19601f83011685010191505092915050565b60018060a01b038616815284602082015283604082015260a06060820152600061238d60a083018561231a565b905082151560808301529695505050505050565b60018060a01b03815116825260208101516020830152604081015160408301526000606082015160a060608501526123dc60a085018261231a565b6080938401511515949093019390935250919050565b6020815260006122fa60208301846123a1565b602081526000825161010080602085015261242461012085018361231a565b915060018060a01b0360208601511660408501526040850151606085015260608501516080850152608085015160a085015260a0850151151560c085015260c085015161247560e086018215159052565b5060e0949094015192909301919091525090565b60008083601f84011261249b57600080fd5b50813567ffffffffffffffff8111156124b357600080fd5b6020830191508360208260051b85010111156124ce57600080fd5b9250929050565b600080600080604085870312156124eb57600080fd5b843567ffffffffffffffff8082111561250357600080fd5b61250f88838901612489565b9096509450602087013591508082111561252857600080fd5b5061253587828801612489565b95989497509550505050565b600080600080600080600080600060a08a8c03121561255f57600080fd5b893567ffffffffffffffff8082111561257757600080fd5b818c0191508c601f83011261258b57600080fd5b81358181111561259a57600080fd5b8d60208285010111156125ac57600080fd5b602083019b50809a50506125c260208d016122c3565b985060408c01359150808211156125d857600080fd5b6125e48d838e01612489565b909850965060608c01359150808211156125fd57600080fd5b6126098d838e01612489565b909650945060808c013591508082111561262257600080fd5b5061262f8c828d01612489565b915080935050809150509295985092959850929598565b6000806000806000806060878903121561265f57600080fd5b863567ffffffffffffffff8082111561267757600080fd5b6126838a838b01612489565b9098509650602089013591508082111561269c57600080fd5b6126a88a838b01612489565b909650945060408901359150808211156126c157600080fd5b506126ce89828a01612489565b979a9699509497509295939492505050565b6020815260006122fa602083018461231a565b6000602080830181845280855180835260408601915060408160051b870101925083870160005b8281101561274857603f198886030184526127368583516123a1565b9450928501929085019060010161271a565b5092979650505050505050565b60006020828403121561276757600080fd5b5051919050565b634e487b7160e01b600052601160045260246000fd5b818103818111156127975761279761276e565b92915050565b634e487b7160e01b600052603260045260246000fd5b80820281158282048414176127975761279761276e565b6000826127e757634e487b7160e01b600052601260045260246000fd5b500490565b600181811c9082168061280057607f821691505b60208210810361282057634e487b7160e01b600052602260045260246000fd5b50919050565b808201808211156127975761279761276e565b60006001820161284b5761284b61276e565b5060010190565b634e487b7160e01b600052604160045260246000fd5b601f821115611e5f57600081815260208120601f850160051c8101602086101561288f5750805b601f850160051c820191505b818110156128ae5782815560010161289b565b505050505050565b67ffffffffffffffff8311156128ce576128ce612852565b6128e2836128dc83546127ec565b83612868565b6000601f84116001811461291657600085156128fe5750838201355b600019600387901b1c1916600186901b178355612970565b600083815260209020601f19861690835b828110156129475786850135825560209485019460019092019101612927565b50868210156129645760001960f88860031b161c19848701351681555b505060018560011b0183555b5050505050565b6000808335601e1984360301811261298e57600080fd5b83018035915067ffffffffffffffff8211156129a957600080fd5b6020019150368190038213156124ce57600080fd5b6060815283606082015283856080830137600060808583018101919091526001600160a01b039384166020830152919092166040830152601f909201601f19160101919050565b8281526000602060408184015260008454612a1f816127ec565b8060408701526060600180841660008114612a415760018114612a5b57612a89565b60ff1985168984015283151560051b890183019550612a89565b896000528660002060005b85811015612a815781548b8201860152908301908801612a66565b8a0184019650505b50939998505050505050505050565b815167ffffffffffffffff811115612ab257612ab2612852565b612ac681612ac084546127ec565b84612868565b602080601f831160018114612afb5760008415612ae35750858301515b600019600386901b1c1916600185901b1785556128ae565b600085815260208120601f198616915b82811015612b2a57888601518255948401946001909101908401612b0b565b5085821015612b485787850151600019600388901b60f8161c191681555b5050505050600190811b01905550565b8281526040602082015260006104af604083018461231a56fe9b779b17422d0df92223018b32b4d1fa46e071723d6817e2486d003becc55f00a26469706673582212208112f12f4c579719bbe48cc465e31a239fe0c414131d9c4d90e48572e659b12a64736f6c63430008140033a2646970667358221220d96567888769b7954c6c49b87279706e8e14bef6eb898cc32af335ff4d87584f64736f6c63430008140033",
  "linkReferences": {},
  "deployedLinkReferences": {}
}