{
  "_format": "hh-sol-artifact-1",
  "contractName": "SplitVault",
  "sourceName": "contracts/SplitVault.sol",
  "abi": [
    {
      "inputs": [
        {
          "internalType": "address",
          "name": "_owner",
          "type": "address"
        }
      ],
      "stateMutability": "nonpayable",
      "type": "constructor"
    },
    {
      "inputs": [],
      "name": "AlreadyInitialized",
      "type": "error"
    },
    {
      "inputs": [],
      "name": "ContributorAlreadyExists",
      "type": "error"
    },
    {
      "inputs": [],
      "name": "ContributorNotFound",
      "type": "error"
    },
    {
      "inputs": [],
      "name": "EnforcedPause",
      "type": "error"
    },
    {
      "inputs": [],
      "name": "ExpectedPause",
      "type": "error"
    },
    {
      "inputs": [],
      "name": "InsufficientBalance",
      "type": "error"
    },
    {
      "inputs": [],
      "name": "InvalidAddress",
      "type": "error"
    },
    {
      "inputs": [],
      "name": "InvalidPercentage",
      "type": "error"
    },
    {
      "inputs": [],
      "name": "LengthMismatch",
      "type": "error"
    },
    {
      "inputs": [],
      "name": "NoContributors",
      "type": "error"
    },
    {
      "inputs": [],
      "name": "NotInitialized",
      "type": "error"
    },
    {
      "inputs": [],
      "name": "NothingToClaim",
      "type": "error"
    },
    {
      "inputs": [],
      "name": "NothingToDistribute",
      "type": "error"
    },
    {
      "inputs": [
        {
          "internalType": "address",
          "name": "owner",
          "type": "address"
        }
      ],
      "name": "OwnableInvalidOwner",
      "type": "error"
    },
    {
      "inputs": [
        {
          "internalType": "address",
          "name": "account",
          "type": "address"
        }
      ],
      "name": "OwnableUnauthorizedAccount",
      "type": "error"
    },
    {
      "inputs": [],
      "name": "PercentageSumExceeds10000",
      "type": "error"
    },
    {
      "inputs": [],
      "name": "ReentrancyGuardReentrantCall",
      "type": "error"
    },
    {
      "inputs": [
        {
          "internalType": "address",
          "name": "token",
          "type": "address"
        }
      ],
      "name": "SafeERC20FailedOperation",
      "type": "error"
    },
    {
      "inputs": [],
      "name": "TransferFailed",
      "type": "error"
    },
    {
      "inputs": [],
      "name": "ZeroAmount",
      "type": "error"
    },
    {
      "anonymous": false,
      "inputs": [
        {
          "indexed": true,
          "internalType": "address",
          "name": "recipient",
          "type": "address"
        },
        {
          "indexed": false,
          "internalType": "uint256",
          "name": "amount",
          "type": "uint256"
        }
      ],
      "name": "Accrued",
      "type": "event"
    },
    {
      "anonymous": false,
      "inputs": [
        {
          "indexed": true,
          "internalType": "address",
          "name": "wallet",
          "type": "address"
        },
        {
          "indexed": false,
          "internalType": "uint256",
          "name": "amount",
          "type": "uint256"
        }
      ],
      "name": "Claimed",
      "type": "event"
    },
    {
      "anonymous": false,
      "inputs": [
        {
          "indexed": true,
          "internalType": "address",
          "name": "wallet",
          "type": "address"
        },
        {
          "indexed": false,
          "internalType": "uint256",
          "name": "percentage",
          "type": "uint256"
        },
        {
          "indexed": false,
          "internalType": "string",
          "name": "role",
          "type": "string"
        }
      ],
      "name": "ContributorAdded",
      "type": "event"
    },
    {
      "anonymous": false,
      "inputs": [
        {
          "indexed": true,
          "internalType": "address",
          "name": "wallet",
          "type": "address"
        }
      ],
      "name": "ContributorRemoved",
      "type": "event"
    },
    {
      "anonymous": false,
      "inputs": [
        {
          "indexed": true,
          "internalType": "address",
          "name": "wallet",
          "type": "address"
        },
        {
          "indexed": false,
          "internalType": "uint256",
          "name": "newPercentage",
          "type": "uint256"
        }
      ],
      "name": "ContributorUpdated",
      "type": "event"
    },
    {
      "anonymous": false,
      "inputs": [
        {
          "indexed": true,
          "internalType": "address",
          "name": "to",
          "type": "address"
        },
        {
          "indexed": false,
          "internalType": "uint256",
          "name": "amount",
          "type": "uint256"
        }
      ],
      "name": "EmergencyWithdraw",
      "type": "event"
    },
    {
      "anonymous": false,
      "inputs": [
        {
          "indexed": false,
          "internalType": "string",
          "name": "projectName",
          "type": "string"
        },
        {
          "indexed": false,
          "internalType": "address",
          "name": "usdcToken",
          "type": "address"
        },
        {
          "indexed": false,
          "internalType": "address",
          "name": "owner",
          "type": "address"
        }
      ],
      "name": "Initialized",
      "type": "event"
    },
    {
      "anonymous": false,
      "inputs": [
        {
          "indexed": true,
          "internalType": "address",
          "name": "previousOwner",
          "type": "address"
        },
        {
          "indexed": true,
          "internalType": "address",
          "name": "newOwner",
          "type": "address"
        }
      ],
      "name": "OwnershipTransferred",
      "type": "event"
    },
    {
      "anonymous": false,
      "inputs": [
        {
          "indexed": false,
          "internalType": "address",
          "name": "account",
          "type": "address"
        }
      ],
      "name": "Paused",
      "type": "event"
    },
    {
      "anonymous": false,
      "inputs": [
        {
          "indexed": true,
          "internalType": "address",
          "name": "recipient",
          "type": "address"
        },
        {
          "indexed": false,
          "internalType": "uint256",
          "name": "amount",
          "type": "uint256"
        }
      ],
      "name": "PayEach",
      "type": "event"
    },
    {
      "anonymous": false,
      "inputs": [
        {
          "indexed": true,
          "internalType": "address",
          "name": "wallet",
          "type": "address"
        },
        {
          "indexed": false,
          "internalType": "uint256",
          "name": "amount",
          "type": "uint256"
        },
        {
          "indexed": false,
          "internalType": "string",
          "name": "role",
          "type": "string"
        }
      ],
      "name": "PaymentSent",
      "type": "event"
    },
    {
      "anonymous": false,
      "inputs": [
        {
          "indexed": true,
          "internalType": "address",
          "name": "from",
          "type": "address"
        },
        {
          "indexed": false,
          "internalType": "uint256",
          "name": "amount",
          "type": "uint256"
        },
        {
          "indexed": false,
          "internalType": "uint256",
          "name": "timestamp",
          "type": "uint256"
        }
      ],
      "name": "RevenueDeposited",
      "type": "event"
    },
    {
      "anonymous": false,
      "inputs": [
        {
          "indexed": false,
          "internalType": "uint256",
          "name": "totalAmount",
          "type": "uint256"
        },
        {
          "indexed": false,
          "internalType": "uint256",
          "name": "contributorCount",
          "type": "uint256"
        },
        {
          "indexed": false,
          "internalType": "uint256",
          "name": "timestamp",
          "type": "uint256"
        }
      ],
      "name": "RevenueDistributed",
      "type": "event"
    },
    {
      "anonymous": false,
      "inputs": [
        {
          "indexed": false,
          "internalType": "address",
          "name": "account",
          "type": "address"
        }
      ],
      "name": "Unpaused",
      "type": "event"
    },
    {
      "inputs": [
        {
          "internalType": "address[]",
          "name": "_recipients",
          "type": "address[]"
        },
        {
          "internalType": "uint256[]",
          "name": "_amounts",
          "type": "uint256[]"
        }
      ],
      "name": "accrue",
      "outputs": [],
      "stateMutability": "nonpayable",
      "type": "function"
    },
    {
      "inputs": [],
      "name": "claim",
      "outputs": [],
      "stateMutability": "nonpayable",
      "type": "function"
    },
    {
      "inputs": [
        {
          "internalType": "address",
          "name": "_wallet",
          "type": "address"
        }
      ],
      "name": "claimFor",
      "outputs": [],
      "stateMutability": "nonpayable",
      "type": "function"
    },
    {
      "inputs": [
        {
          "internalType": "address",
          "name": "",
          "type": "address"
        }
      ],
      "name": "claimable",
      "outputs": [
        {
          "internalType": "uint256",
          "name": "",
          "type": "uint256"
        }
      ],
      "stateMutability": "view",
      "type": "function"
    },
    {
      "inputs": [
        {
          "internalType": "uint256",
          "name": "",
          "type": "uint256"
        }
      ],
      "name": "contributors",
      "outputs": [
        {
          "internalType": "address",
          "name": "wallet",
          "type": "address"
        },
        {
          "internalType": "uint256",
          "name": "percentage",
          "type": "uint256"
        },
        {
          "internalType": "uint256",
          "name": "totalPaid",
          "type": "uint256"
        },
        {
          "internalType": "string",
          "name": "role",
          "type": "string"
        },
        {
          "internalType": "bool",
          "name": "active",
          "type": "bool"
        }
      ],
      "stateMutability": "view",
      "type": "function"
    },
    {
      "inputs": [
        {
          "internalType": "uint256",
          "name": "_amount",
          "type": "uint256"
        }
      ],
      "name": "depositRevenue",
      "outputs": [],
      "stateMutability": "nonpayable",
      "type": "function"
    },
    {
      "inputs": [],
      "name": "distribute",
      "outputs": [],
      "stateMutability": "nonpayable",
      "type": "function"
    },
    {
      "inputs": [
        {
          "internalType": "uint256",
          "name": "_amount",
          "type": "uint256"
        }
      ],
      "name": "distributePartial",
      "outputs": [],
      "stateMutability": "nonpayable",
      "type": "function"
    },
    {
      "inputs": [
        {
          "internalType": "address",
          "name": "_to",
          "type": "address"
        }
      ],
      "name": "emergencyWithdraw",
      "outputs": [],
      "stateMutability": "nonpayable",
      "type": "function"
    },
    {
      "inputs": [
        {
          "internalType": "address",
          "name": "_wallet",
          "type": "address"
        }
      ],
      "name": "getContributor",
      "outputs": [
        {
          "components": [
            {
              "internalType": "address",
              "name": "wallet",
              "type": "address"
            },
            {
              "internalType": "uint256",
              "name": "percentage",
              "type": "uint256"
            },
            {
              "internalType": "uint256",
              "name": "totalPaid",
              "type": "uint256"
            },
            {
              "internalType": "string",
              "name": "role",
              "type": "string"
            },
            {
              "internalType": "bool",
              "name": "active",
              "type": "bool"
            }
          ],
          "internalType": "struct SplitVault.Contributor",
          "name": "",
          "type": "tuple"
        }
      ],
      "stateMutability": "view",
      "type": "function"
    },
    {
      "inputs": [],
      "name": "getContributors",
      "outputs": [
        {
          "components": [
            {
              "internalType": "address",
              "name": "wallet",
              "type": "address"
            },
            {
              "internalType": "uint256",
              "name": "percentage",
              "type": "uint256"
            },
            {
              "internalType": "uint256",
              "name": "totalPaid",
              "type": "uint256"
            },
            {
              "internalType": "string",
              "name": "role",
              "type": "string"
            },
            {
              "internalType": "bool",
              "name": "active",
              "type": "bool"
            }
          ],
          "internalType": "struct SplitVault.Contributor[]",
          "name": "",
          "type": "tuple[]"
        }
      ],
      "stateMutability": "view",
      "type": "function"
    },
    {
      "inputs": [],
      "name": "getProjectInfo",
      "outputs": [
        {
          "components": [
            {
              "internalType": "string",
              "name": "name",
              "type": "string"
            },
            {
              "internalType": "address",
              "name": "usdcToken",
              "type": "address"
            },
            {
              "internalType": "uint256",
              "name": "totalDeposited",
              "type": "uint256"
            },
            {
              "internalType": "uint256",
              "name": "totalDistributed",
              "type": "uint256"
            },
            {
              "internalType": "uint256",
              "name": "pendingBalance",
              "type": "uint256"
            },
            {
              "internalType": "bool",
              "name": "initialized",
              "type": "bool"
            },
            {
              "internalType": "bool",
              "name": "paused",
              "type": "bool"
            },
            {
              "internalType": "uint256",
              "name": "contributorCount",
              "type": "uint256"
            }
          ],
          "internalType": "struct SplitVault.ProjectInfo",
          "name": "",
          "type": "tuple"
        }
      ],
      "stateMutability": "view",
      "type": "function"
    },
    {
      "inputs": [
        {
          "internalType": "string",
          "name": "_projectName",
          "type": "string"
        },
        {
          "internalType": "address",
          "name": "_usdcToken",
          "type": "address"
        },
        {
          "internalType": "address[]",
          "name": "_wallets",
          "type": "address[]"
        },
        {
          "internalType": "uint256[]",
          "name": "_percentages",
          "type": "uint256[]"
        },
        {
          "internalType": "string[]",
          "name": "_roles",
          "type": "string[]"
        }
      ],
      "name": "initialize",
      "outputs": [],
      "stateMutability": "nonpayable",
      "type": "function"
    },
    {
      "inputs": [],
      "name": "initialized",
      "outputs": [
        {
          "internalType": "bool",
          "name": "",
          "type": "bool"
        }
      ],
      "stateMutability": "view",
      "type": "function"
    },
    {
      "inputs": [],
      "name": "owner",
      "outputs": [
        {
          "internalType": "address",
          "name": "",
          "type": "address"
        }
      ],
      "stateMutability": "view",
      "type": "function"
    },
    {
      "inputs": [],
      "name": "pause",
      "outputs": [],
      "stateMutability": "nonpayable",
      "type": "function"
    },
    {
      "inputs": [],
      "name": "paused",
      "outputs": [
        {
          "internalType": "bool",
          "name": "",
          "type": "bool"
        }
      ],
      "stateMutability": "view",
      "type": "function"
    },
    {
      "inputs": [
        {
          "internalType": "address[]",
          "name": "_recipients",
          "type": "address[]"
        },
        {
          "internalType": "uint256[]",
          "name": "_amounts",
          "type": "uint256[]"
        }
      ],
      "name": "payEach",
      "outputs": [],
      "stateMutability": "nonpayable",
      "type": "function"
    },
    {
      "inputs": [],
      "name": "pendingBalance",
      "outputs": [
        {
          "internalType": "uint256",
          "name": "",
          "type": "uint256"
        }
      ],
      "stateMutability": "view",
      "type": "function"
    },
    {
      "inputs": [
        {
          "internalType": "address",
          "name": "_wallet",
          "type": "address"
        }
      ],
      "name": "previewShare",
      "outputs": [
        {
          "internalType": "uint256",
          "name": "",
          "type": "uint256"
        }
      ],
      "stateMutability": "view",
      "type": "function"
    },
    {
      "inputs": [],
      "name": "projectName",
      "outputs": [
        {
          "internalType": "string",
          "name": "",
          "type": "string"
        }
      ],
      "stateMutability": "view",
      "type": "function"
    },
    {
      "inputs": [],
      "name": "renounceOwnership",
      "outputs": [],
      "stateMutability": "nonpayable",
      "type": "function"
    },
    {
      "inputs": [
        {
          "internalType": "address[]",
          "name": "_wallets",
          "type": "address[]"
        },
        {
          "internalType": "uint256[]",
          "name": "_percentages",
          "type": "uint256[]"
        },
        {
          "internalType": "string[]",
          "name": "_roles",
          "type": "string[]"
        }
      ],
      "name": "replaceContributors",
      "outputs": [],
      "stateMutability": "nonpayable",
      "type": "function"
    },
    {
      "inputs": [],
      "name": "totalDeposited",
      "outputs": [
        {
          "internalType": "uint256",
          "name": "",
          "type": "uint256"
        }
      ],
      "stateMutability": "view",
      "type": "function"
    },
    {
      "inputs": [],
      "name": "totalDistributed",
      "outputs": [
        {
          "internalType": "uint256",
          "name": "",
          "type": "uint256"
        }
      ],
      "stateMutability": "view",
      "type": "function"
    },
    {
      "inputs": [
        {
          "internalType": "address",
          "name": "newOwner",
          "type": "address"
        }
      ],
      "name": "transferOwnership",
      "outputs": [],
      "stateMutability": "nonpayable",
      "type": "function"
    },
    {
      "inputs": [],
      "name": "unpause",
      "outputs": [],
      "stateMutability": "nonpayable",
      "type": "function"
    },
    {
      "inputs": [],
      "name": "usdcToken",
      "outputs": [
        {
          "internalType": "contract IERC20",
          "name": "",
          "type": "address"
        }
      ],
      "stateMutability": "view",
      "type": "function"
    }
  ],
  "bytecode": "0x60806040523480156200001157600080fd5b5060405162002e3a38038062002e3a8339810160408190526200003491620000eb565b8060017f9b779b17422d0df92223018b32b4d1fa46e071723d6817e2486d003becc55f00556001600160a01b0381166200008857604051631e4fbdf760e01b81526000600482015260240160405180910390fd5b62000093816200009b565b50506200011d565b600080546001600160a01b038381166001600160a01b0319831681178455604051919092169283917f8be0079c531659141344cd1fd0a4f28419497f9722a3daafe3b4186f6b6457e09190a35050565b600060208284031215620000fe57600080fd5b81516001600160a01b03811681146200011657600080fd5b9392505050565b612d0d806200012d6000396000f3fe608060405234801561001057600080fd5b50600436106101c45760003560e01c806376e15be3116100f9578063bc1ca3e911610097578063e4fc6b6d11610071578063e4fc6b6d146103bf578063efca2eed146103c7578063f2fde38b146103d0578063ff50abdc146103e357600080fd5b8063bc1ca3e914610386578063ddeae03314610399578063e1a5a0c8146103ac57600080fd5b8063884b63aa116100d3578063884b63aa146103385780638da5cb5b1461034b5780639a33e3001461035c578063af157c191461037157600080fd5b806376e15be31461030a5780638456cb591461031d57806384bf3b811461032557600080fd5b8063402914f5116101665780635c975abb116101405780635c975abb146102c857806367c897fe146102da5780636ff1c9bc146102ef578063715018a61461030257600080fd5b8063402914f5146102985780634e71d92d146102b857806357b4d18e146102c057600080fd5b80633cb5d100116101a25780633cb5d100146102375780633d8270f51461025b5780633de864301461027b5780633f4ba83a1461029057600080fd5b806311eac855146101c9578063158ef93e146101f957806316bb5e9114610216575b600080fd5b6001546101dc906001600160a01b031681565b6040516001600160a01b0390911681526020015b60405180910390f35b6003546102069060ff1681565b60405190151581526020016101f0565b610229610224366004612425565b6103ec565b6040519081526020016101f0565b61024a610245366004612447565b6104e5565b6040516101f09594939291906124a6565b61026e610269366004612425565b6105c0565b6040516101f09190612538565b61028e610289366004612447565b610743565b005b61028e61084b565b6102296102a6366004612425565b60086020526000908152604090205481565b61028e61085d565b61022961094e565b600054600160a01b900460ff16610206565b6102e26109d2565b6040516101f0919061254b565b61028e6102fd366004612425565b610b9d565b61028e610cdd565b61028e61031836600461261b565b610cef565b61028e610fd0565b61028e610333366004612687565b610fe0565b61028e61034636600461278c565b6112e5565b6000546001600160a01b03166101dc565b610364611525565b6040516101f09190612826565b6103796115b3565b6040516101f09190612839565b61028e610394366004612447565b6116e1565b61028e6103a7366004612425565b6117b5565b61028e6103ba36600461261b565b6118cd565b61028e611b9e565b61022960055481565b61028e6103de366004612425565b611c81565b61022960045481565b6001600160a01b0381166000908152600760205260408120548082036104155750600092915050565b6001546040516370a0823160e01b81523060048201526000916001600160a01b0316906370a0823190602401602060405180830381865afa15801561045e573d6000803e3d6000fd5b505050506040513d601f19601f82011682018060405250810190610482919061289b565b905080600003610496575060009392505050565b61271060066104a66001856128ca565b815481106104b6576104b66128e3565b906000526020600020906005020160010154826104d391906128f9565b6104dd9190612910565b949350505050565b600681815481106104f557600080fd5b600091825260209091206005909102018054600182015460028301546003840180546001600160a01b0390941695509193909290919061053490612932565b80601f016020809104026020016040519081016040528092919081815260200182805461056090612932565b80156105ad5780601f10610582576101008083540402835291602001916105ad565b820191906000526020600020905b81548152906001019060200180831161059057829003601f168201915b5050506004909301549192505060ff1685565b6040805160a08101825260008082526020808301829052828401829052606080840152608083018290526001600160a01b0385168252600790529182205490918190036106205760405163b6665f3f60e01b815260040160405180910390fd5b600661062d6001836128ca565b8154811061063d5761063d6128e3565b90600052602060002090600502016040518060a00160405290816000820160009054906101000a90046001600160a01b03166001600160a01b03166001600160a01b0316815260200160018201548152602001600282015481526020016003820180546106a990612932565b80601f01602080910402602001604051908101604052809291908181526020018280546106d590612932565b80156107225780601f106106f757610100808354040283529160200191610722565b820191906000526020600020905b81548152906001019060200180831161070557829003601f168201915b50505091835250506004919091015460ff1615156020909101529392505050565b60035460ff16610766576040516321c4e35760e21b815260040160405180910390fd5b61076e611cc1565b610776611cec565b8060000361079757604051631f2a200560e01b815260040160405180910390fd5b6001546040516370a0823160e01b81523060048201526000916001600160a01b0316906370a0823190602401602060405180830381865afa1580156107e0573d6000803e3d6000fd5b505050506040513d601f19601f82011682018060405250810190610804919061289b565b90508082111561082757604051631e9acf1760e31b815260040160405180910390fd5b61083082611d08565b506108486001600080516020612cb883398151915255565b50565b610853611eee565b61085b611f1b565b565b60035460ff16610880576040516321c4e35760e21b815260040160405180910390fd5b610888611cc1565b610890611cec565b33600090815260086020526040812054908190036108c1576040516312d37ee560e31b815260040160405180910390fd5b336000908152600860205260408120819055600580548392906108e590849061296c565b9091555050600154610901906001600160a01b03163383611f70565b60405181815233907fd8138f8a3f377c5259ca548e70e4c2de94f129f5a11036a15b69513cba2b426a9060200160405180910390a25061085b6001600080516020612cb883398151915255565b60035460009060ff166109615750600090565b6001546040516370a0823160e01b81523060048201526001600160a01b03909116906370a0823190602401602060405180830381865afa1580156109a9573d6000803e3d6000fd5b505050506040513d601f19601f820116820180604052508101906109cd919061289b565b905090565b610a276040518061010001604052806060815260200160006001600160a01b03168152602001600081526020016000815260200160008152602001600015158152602001600015158152602001600081525090565b60405180610100016040528060028054610a4090612932565b80601f0160208091040260200160405190810160405280929190818152602001828054610a6c90612932565b8015610ab95780601f10610a8e57610100808354040283529160200191610ab9565b820191906000526020600020905b815481529060010190602001808311610a9c57829003601f168201915b50505091835250506001546001600160a01b031660208201526004546040820152600554606082015260035460809091019060ff16610af9576000610b65565b6001546040516370a0823160e01b81523060048201526001600160a01b03909116906370a0823190602401602060405180830381865afa158015610b41573d6000803e3d6000fd5b505050506040513d601f19601f82011682018060405250810190610b65919061289b565b815260035460ff1615156020820152604001610b8b60005460ff600160a01b9091041690565b15158152600654602090910152919050565b610ba5611eee565b610bad611faa565b610bb5611cec565b6001600160a01b038116610bdc5760405163e6c4247b60e01b815260040160405180910390fd5b6001546040516370a0823160e01b81523060048201526000916001600160a01b0316906370a0823190602401602060405180830381865afa158015610c25573d6000803e3d6000fd5b505050506040513d601f19601f82011682018060405250810190610c49919061289b565b905080600003610c6b5760405162598fc960e21b815260040160405180910390fd5b600154610c82906001600160a01b03168383611f70565b816001600160a01b03167f5fafa99d0643513820be26656b45130b01e1c03062e1266bf36f88cbd3bd969582604051610cbd91815260200190565b60405180910390a2506108486001600080516020612cb883398151915255565b610ce5611eee565b61085b6000611fd4565b610cf7611eee565b60035460ff16610d1a576040516321c4e35760e21b815260040160405180910390fd5b610d22611cc1565b610d2a611cec565b821580610d375750828114155b15610d58576040516001621398b960e31b0319815260040160405180910390fd5b6000805b82811015610d9c57838382818110610d7657610d766128e3565b9050602002013582610d88919061296c565b915080610d948161297f565b915050610d5c565b506001546040516370a0823160e01b815230600482015282916001600160a01b0316906370a0823190602401602060405180830381865afa158015610de5573d6000803e3d6000fd5b505050506040513d601f19601f82011682018060405250810190610e09919061289b565b1015610e2857604051631e9acf1760e31b815260040160405180910390fd5b60005b84811015610fb1576000868683818110610e4757610e476128e3565b9050602002016020810190610e5c9190612425565b6001600160a01b031603610e835760405163e6c4247b60e01b815260040160405180910390fd5b838382818110610e9557610e956128e3565b9050602002013560000315610f9f57838382818110610eb657610eb66128e3565b9050602002013560086000888885818110610ed357610ed36128e3565b9050602002016020810190610ee89190612425565b6001600160a01b03166001600160a01b031681526020019081526020016000206000828254610f17919061296c565b909155508690508582818110610f2f57610f2f6128e3565b9050602002016020810190610f449190612425565b6001600160a01b03167f603f16706d8facbdadddadc2f84737909caebc5d1f3adf53d69014f2d908611c858584818110610f8057610f806128e3565b90506020020135604051610f9691815260200190565b60405180910390a25b80610fa98161297f565b915050610e2b565b5050610fca6001600080516020612cb883398151915255565b50505050565b610fd8611eee565b61085b612024565b610fe8611eee565b60035460ff161561100b5760405162dc149f60e41b815260040160405180910390fd5b6001600160a01b0387166110325760405163e6c4247b60e01b815260040160405180910390fd5b600085900361105457604051637f2ba2a560e11b815260040160405180910390fd5b84831415806110635750848114155b1561108157604051631f3b85d360e01b815260040160405180910390fd5b6000805b848110156111735760008888838181106110a1576110a16128e3565b90506020020160208101906110b69190612425565b6001600160a01b0316036110dd5760405163e6c4247b60e01b815260040160405180910390fd5b8585828181106110ef576110ef6128e3565b905060200201356000148061111d5750612710868683818110611114576111146128e3565b90506020020135115b1561113b57604051631f3b85d360e01b815260040160405180910390fd5b85858281811061114d5761114d6128e3565b905060200201358261115f919061296c565b91508061116b8161297f565b915050611085565b508061271014611196576040516396bd3b6760e01b815260040160405180910390fd5b600180546001600160a01b0319166001600160a01b038a1617905560026111be8a8c836129fc565b506003805460ff1916600117905560005b8681101561128a576112788888838181106111ec576111ec6128e3565b90506020020160208101906112019190612425565b878784818110611213576112136128e3565b9050602002013586868581811061122c5761122c6128e3565b905060200281019061123e9190612abd565b8080601f01602080910402602001604051908101604052809392919081815260200183838082843760009201919091525061206792505050565b806112828161297f565b9150506111cf565b507f59fa11520ff76ce90ec76e544bc463d4e49c009ce0585a35f504348b33bb0bb78a8a8a6112c16000546001600160a01b031690565b6040516112d19493929190612b04565b60405180910390a150505050505050505050565b6112ed611eee565b60035460ff16611310576040516321c4e35760e21b815260040160405180910390fd5b611318611cc1565b600085900361133a57604051637f2ba2a560e11b815260040160405180910390fd5b84831415806113495750848114155b1561136757604051631f3b85d360e01b815260040160405180910390fd5b6000805b84811015611459576000888883818110611387576113876128e3565b905060200201602081019061139c9190612425565b6001600160a01b0316036113c35760405163e6c4247b60e01b815260040160405180910390fd5b8585828181106113d5576113d56128e3565b905060200201356000148061140357506127108686838181106113fa576113fa6128e3565b90506020020135115b1561142157604051631f3b85d360e01b815260040160405180910390fd5b858582818110611433576114336128e3565b9050602002013582611445919061296c565b9150806114518161297f565b91505061136b565b50806127101461147c576040516396bd3b6760e01b815260040160405180910390fd5b60005b6006548110156114dc5760076000600683815481106114a0576114a06128e3565b600091825260208083206005909202909101546001600160a01b03168352820192909252604001812055806114d48161297f565b91505061147f565b506114e960066000612356565b60005b8681101561151b576115098888838181106111ec576111ec6128e3565b806115138161297f565b9150506114ec565b5050505050505050565b6002805461153290612932565b80601f016020809104026020016040519081016040528092919081815260200182805461155e90612932565b80156115ab5780601f10611580576101008083540402835291602001916115ab565b820191906000526020600020905b81548152906001019060200180831161158e57829003601f168201915b505050505081565b60606006805480602002602001604051908101604052809291908181526020016000905b828210156116d85760008481526020908190206040805160a0810182526005860290920180546001600160a01b0316835260018101549383019390935260028301549082015260038201805491929160608401919061163590612932565b80601f016020809104026020016040519081016040528092919081815260200182805461166190612932565b80156116ae5780601f10611683576101008083540402835291602001916116ae565b820191906000526020600020905b81548152906001019060200180831161169157829003601f168201915b50505091835250506004919091015460ff16151560209182015290825260019290920191016115d7565b50505050905090565b60035460ff16611704576040516321c4e35760e21b815260040160405180910390fd5b61170c611cc1565b611714611cec565b8060000361173557604051631f2a200560e01b815260040160405180910390fd5b60015461174d906001600160a01b0316333084612218565b806004600082825461175f919061296c565b90915550506040805182815242602082015233917f2f22b7f6e7f7df7d0eb3d1a543a2b6eb906e76a03540c2d66d2725270a5f6d31910160405180910390a26108486001600080516020612cb883398151915255565b60035460ff166117d8576040516321c4e35760e21b815260040160405180910390fd5b6117e0611cc1565b6117e8611cec565b6001600160a01b03811661180f5760405163e6c4247b60e01b815260040160405180910390fd5b6001600160a01b03811660009081526008602052604081205490819003611849576040516312d37ee560e31b815260040160405180910390fd5b6001600160a01b03821660009081526008602052604081208190556005805483929061187690849061296c565b9091555050600154611892906001600160a01b03168383611f70565b816001600160a01b03167fd8138f8a3f377c5259ca548e70e4c2de94f129f5a11036a15b69513cba2b426a82604051610cbd91815260200190565b6118d5611eee565b60035460ff166118f8576040516321c4e35760e21b815260040160405180910390fd5b611900611cc1565b611908611cec565b8215806119155750828114155b15611936576040516001621398b960e31b0319815260040160405180910390fd5b6000805b8281101561197a57838382818110611954576119546128e3565b9050602002013582611966919061296c565b9150806119728161297f565b91505061193a565b506001546040516370a0823160e01b815230600482015282916001600160a01b0316906370a0823190602401602060405180830381865afa1580156119c3573d6000803e3d6000fd5b505050506040513d601f19601f820116820180604052508101906119e7919061289b565b1015611a0657604051631e9acf1760e31b815260040160405180910390fd5b60005b84811015610fb1576000868683818110611a2557611a256128e3565b9050602002016020810190611a3a9190612425565b6001600160a01b031603611a615760405163e6c4247b60e01b815260040160405180910390fd5b838382818110611a7357611a736128e3565b9050602002013560000315611b8c57611ada868683818110611a9757611a976128e3565b9050602002016020810190611aac9190612425565b858584818110611abe57611abe6128e3565b6001546001600160a01b03169392602090910201359050611f70565b838382818110611aec57611aec6128e3565b9050602002013560056000828254611b04919061296c565b909155508690508582818110611b1c57611b1c6128e3565b9050602002016020810190611b319190612425565b6001600160a01b03167ff01fbf7365e57363aafb506ba8922579de1fc0489aece961448c539e463b1b30858584818110611b6d57611b6d6128e3565b90506020020135604051611b8391815260200190565b60405180910390a25b80611b968161297f565b915050611a09565b60035460ff16611bc1576040516321c4e35760e21b815260040160405180910390fd5b611bc9611cc1565b611bd1611cec565b6001546040516370a0823160e01b81523060048201526000916001600160a01b0316906370a0823190602401602060405180830381865afa158015611c1a573d6000803e3d6000fd5b505050506040513d601f19601f82011682018060405250810190611c3e919061289b565b905080600003611c605760405162598fc960e21b815260040160405180910390fd5b611c6981611d08565b5061085b6001600080516020612cb883398151915255565b611c89611eee565b6001600160a01b038116611cb857604051631e4fbdf760e01b8152600060048201526024015b60405180910390fd5b61084881611fd4565b600054600160a01b900460ff161561085b5760405163d93c066560e01b815260040160405180910390fd5b611cf461224e565b6002600080516020612cb883398151915255565b600654600003611d2b57604051637f2ba2a560e11b815260040160405180910390fd5b600654600090815b81811015611e4857600060068281548110611d5057611d506128e3565b60009182526020909120600590910201600481015490915060ff16611d755750611e36565b6000612710826001015487611d8a91906128f9565b611d949190612910565b905080600003611da5575050611e36565b80826002016000828254611db9919061296c565b90915550611dc99050818661296c565b8254600154919650611de8916001600160a01b03908116911683611f70565b81546040516001600160a01b03909116907f53c70bd67916e0181ec9b1ae9e5f5e9c76188ad9d5a018bf5fb8b2507a44dd8490611e2b9084906003870190612b4b565b60405180910390a250505b80611e408161297f565b915050611d33565b506000611e5583856128ca565b90508015611e9257611e85611e726000546001600160a01b031690565b6001546001600160a01b03169083611f70565b611e8f818461296c565b92505b8260056000828254611ea4919061296c565b90915550506040805184815260208101849052428183015290517f6215b003e186dbc79e3bd07b486dc69758f50dab026e5d485d4a945d560154479181900360600190a150505050565b6000546001600160a01b0316331461085b5760405163118cdaa760e01b8152336004820152602401611caf565b611f23611faa565b6000805460ff60a01b191690557f5db9ee0a495bf2e6ff9c91a7834c1ba4fdd244a5e8aa4e537bd38aeae4b073aa335b6040516001600160a01b03909116815260200160405180910390a1565b611f7d838383600161227e565b611fa557604051635274afe760e01b81526001600160a01b0384166004820152602401611caf565b505050565b600054600160a01b900460ff1661085b57604051638dfc202b60e01b815260040160405180910390fd5b600080546001600160a01b038381166001600160a01b0319831681178455604051919092169283917f8be0079c531659141344cd1fd0a4f28419497f9722a3daafe3b4186f6b6457e09190a35050565b61202c611cc1565b6000805460ff60a01b1916600160a01b1790557f62e78cea01bee320cd4e420270b5ea74000d11b0c9f74754ebdbfc544b05a258611f533390565b6001600160a01b0383166000908152600760205260409020541561209e57604051630d228c3b60e41b815260040160405180910390fd5b6040805160a0810182526001600160a01b0385811682526020820185815260009383018481526060840186815260016080860181905260068054918201815590965284517ff652222313e28459528d920b65115c16c04f3efc82aaedc97be59f3f377c0d3f600590970296870180546001600160a01b0319169190951617845591517ff652222313e28459528d920b65115c16c04f3efc82aaedc97be59f3f377c0d40860155517ff652222313e28459528d920b65115c16c04f3efc82aaedc97be59f3f377c0d4185015551919290917ff652222313e28459528d920b65115c16c04f3efc82aaedc97be59f3f377c0d429091019061219d9082612bde565b50608091909101516004909101805460ff19169115159190911790556006546001600160a01b038416600081815260076020526040908190209290925590517f5107eb461842b811feb3b67a639723df0c932c78567f48e039209c63dc6b0d739061220b9085908590612c9e565b60405180910390a2505050565b6122268484848460016122e4565b610fca57604051635274afe760e01b81526001600160a01b0385166004820152602401611caf565b600080516020612cb88339815191525460020361085b57604051633ee5aeb560e01b815260040160405180910390fd5b60405163a9059cbb60e01b60008181526001600160a01b038616600452602485905291602083604481808b5af1925060016000511483166122d85783831516156122cb573d6000823e3d81fd5b6000873b113d1516831692505b60405250949350505050565b6040516323b872dd60e01b60008181526001600160a01b038781166004528616602452604485905291602083606481808c5af192506001600051148316612344578383151615612337573d6000823e3d81fd5b6000883b113d1516831692505b60405250600060605295945050505050565b508054600082556005029060005260206000209081019061084891905b808211156123bb5780546001600160a01b0319168155600060018201819055600282018190556123a660038301826123bf565b5060048101805460ff19169055600501612373565b5090565b5080546123cb90612932565b6000825580601f106123db575050565b601f01602090049060005260206000209081019061084891905b808211156123bb57600081556001016123f5565b80356001600160a01b038116811461242057600080fd5b919050565b60006020828403121561243757600080fd5b61244082612409565b9392505050565b60006020828403121561245957600080fd5b5035919050565b6000815180845260005b818110156124865760208185018101518683018201520161246a565b506000602082860101526020601f19601f83011685010191505092915050565b60018060a01b038616815284602082015283604082015260a0606082015260006124d360a0830185612460565b905082151560808301529695505050505050565b60018060a01b03815116825260208101516020830152604081015160408301526000606082015160a0606085015261252260a0850182612460565b6080938401511515949093019390935250919050565b60208152600061244060208301846124e7565b602081526000825161010080602085015261256a610120850183612460565b915060018060a01b0360208601511660408501526040850151606085015260608501516080850152608085015160a085015260a0850151151560c085015260c08501516125bb60e086018215159052565b5060e0949094015192909301919091525090565b60008083601f8401126125e157600080fd5b50813567ffffffffffffffff8111156125f957600080fd5b6020830191508360208260051b850101111561261457600080fd5b9250929050565b6000806000806040858703121561263157600080fd5b843567ffffffffffffffff8082111561264957600080fd5b612655888389016125cf565b9096509450602087013591508082111561266e57600080fd5b5061267b878288016125cf565b95989497509550505050565b600080600080600080600080600060a08a8c0312156126a557600080fd5b893567ffffffffffffffff808211156126bd57600080fd5b818c0191508c601f8301126126d157600080fd5b8135818111156126e057600080fd5b8d60208285010111156126f257600080fd5b602083019b50809a505061270860208d01612409565b985060408c013591508082111561271e57600080fd5b61272a8d838e016125cf565b909850965060608c013591508082111561274357600080fd5b61274f8d838e016125cf565b909650945060808c013591508082111561276857600080fd5b506127758c828d016125cf565b915080935050809150509295985092959850929598565b600080600080600080606087890312156127a557600080fd5b863567ffffffffffffffff808211156127bd57600080fd5b6127c98a838b016125cf565b909850965060208901359150808211156127e257600080fd5b6127ee8a838b016125cf565b9096509450604089013591508082111561280757600080fd5b5061281489828a016125cf565b979a9699509497509295939492505050565b6020815260006124406020830184612460565b6000602080830181845280855180835260408601915060408160051b870101925083870160005b8281101561288e57603f1988860301845261287c8583516124e7565b94509285019290850190600101612860565b5092979650505050505050565b6000602082840312156128ad57600080fd5b5051919050565b634e487b7160e01b600052601160045260246000fd5b818103818111156128dd576128dd6128b4565b92915050565b634e487b7160e01b600052603260045260246000fd5b80820281158282048414176128dd576128dd6128b4565b60008261292d57634e487b7160e01b600052601260045260246000fd5b500490565b600181811c9082168061294657607f821691505b60208210810361296657634e487b7160e01b600052602260045260246000fd5b50919050565b808201808211156128dd576128dd6128b4565b600060018201612991576129916128b4565b5060010190565b634e487b7160e01b600052604160045260246000fd5b601f821115611fa557600081815260208120601f850160051c810160208610156129d55750805b601f850160051c820191505b818110156129f4578281556001016129e1565b505050505050565b67ffffffffffffffff831115612a1457612a14612998565b612a2883612a228354612932565b836129ae565b6000601f841160018114612a5c5760008515612a445750838201355b600019600387901b1c1916600186901b178355612ab6565b600083815260209020601f19861690835b82811015612a8d5786850135825560209485019460019092019101612a6d565b5086821015612aaa5760001960f88860031b161c19848701351681555b505060018560011b0183555b5050505050565b6000808335601e19843603018112612ad457600080fd5b83018035915067ffffffffffffffff821115612aef57600080fd5b60200191503681900382131561261457600080fd5b6060815283606082015283856080830137600060808583018101919091526001600160a01b039384166020830152919092166040830152601f909201601f19160101919050565b8281526000602060408184015260008454612b6581612932565b8060408701526060600180841660008114612b875760018114612ba157612bcf565b60ff1985168984015283151560051b890183019550612bcf565b896000528660002060005b85811015612bc75781548b8201860152908301908801612bac565b8a0184019650505b50939998505050505050505050565b815167ffffffffffffffff811115612bf857612bf8612998565b612c0c81612c068454612932565b846129ae565b602080601f831160018114612c415760008415612c295750858301515b600019600386901b1c1916600185901b1785556129f4565b600085815260208120601f198616915b82811015612c7057888601518255948401946001909101908401612c51565b5085821015612c8e5787850151600019600388901b60f8161c191681555b5050505050600190811b01905550565b8281526040602082015260006104dd604083018461246056fe9b779b17422d0df92223018b32b4d1fa46e071723d6817e2486d003becc55f00a264697066735822122017bf189533c1dc59e8a30d5b2bed8f6736ecfda11de60314e55ef78668cf98a564736f6c63430008140033",
  "linkReferences": {},
  "deployedLinkReferences": {}
}